{
    "contractName": "Raffle",
    "abi": [
        {
            "inputs": [
                {
                    "internalType": "uint256",
                    "name": "EntranceFee",
                    "type": "uint256"
                },
                {
                    "internalType": "uint256",
                    "name": "TimeInterval",
                    "type": "uint256"
                }
            ],
            "stateMutability": "nonpayable",
            "type": "constructor"
        },
        {
            "inputs": [],
            "name": "Raffle__NotEnough",
            "type": "error"
        },
        {
            "anonymous": false,
            "inputs": [
                {
                    "indexed": true,
                    "internalType": "address",
                    "name": "player",
                    "type": "address"
                }
            ],
            "name": "enteredRaffle",
            "type": "event"
        },
        {
            "inputs": [],
            "name": "enterRaffle",
            "outputs": [],
            "stateMutability": "payable",
            "type": "function"
        },
        {
            "inputs": [],
            "name": "pickWinner",
            "outputs": [],
            "stateMutability": "nonpayable",
            "type": "function"
        }
    ],
    "bytecode": "608060405234801561001057600080fd5b506040516101ca3803806101ca83398101604081905261002f91610041565b60009190915560015542600255610065565b6000806040838503121561005457600080fd5b505080516020909101519092909150565b610156806100746000396000f3fe6080604052600436106100295760003560e01c80632cfcc5391461002e5780635d495aea14610038575b600080fd5b61003661004d565b005b34801561004457600080fd5b506100366100de565b60005434101561007057604051637419827d60e11b815260040160405180910390fd5b6003805460018101825560009182527fc2575a0e9e593c00f959f8c92f12db2869c3395a3b0502d05e2516446f71f85b0180546001600160a01b0319163390811790915560405190917fd78f827cd914f7521fd97ac8d75e9ab6f080fdcbf7b6cd63e599b59233e6106f91a2565b6001546002546100ee90426100fb565b10156100f957600080fd5b565b60008282101561011b57634e487b7160e01b600052601160045260246000fd5b50039056fea2646970667358221220820ee1cbb3ae50b5f0efebe69d319f71cff4bb354dfc423557a48c38f0cf2fc064736f6c634300080f0033",
    "sourcePath": "/Users/jagdeep/Desktop/foundry/foundary-f23/foundry-lottery-f23/src/Raffle.sol",
    "compiler": {
        "name": "solc",
        "version": "0.8.15+commit.e14f2714"
    },
    "functionHashes": {
        "enterRaffle()": "2cfcc539",
        "pickWinner()": "5d495aea"
    },
    "gasEstimates": {
        "creation": {
            "codeDepositCost": "68400",
            "executionCost": "infinite",
            "totalCost": "infinite"
        },
        "external": {
            "enterRaffle()": "51843",
            "pickWinner()": "4436"
        }
    }
}